:020000040800F2
:1000000000000220FD140008D5120008DD120008CF
:10001000E5120008ED120008F512000800000000CB
:10002000000000000000000000000000FD120008B9
:100030000B13000800000000191300082713000824
:100040004D1500084D1500084D1500084D15000808
:100050004D1500084D1500084D1500084D150008F8
:100060004D1500084D1500084D1500084D150008E8
:100070004D1500084D1500084D1500084D150008D8
:100080004D1500084D1500084D1500084D150008C8
:10009000351300084D1500084D1500084D150008D2
:1000A0004D1500084D1500084D1500084D150008A8
:1000B0004D1500084D1500084D1500084D15000898
:1000C0004D1500084D1500084D1500084D15000888
:1000D0004D1500084D1500084D1500084D15000878
:1000E000491300084D1500084D1500084D1500086E
:1000F0004D1500084D1500084D1500084D15000858
:100100004D1500084D1500084D1500084D15000847
:100110004D1500084D1500084D1500084D15000837
:100120004D1500084D1500084D1500084D15000827
:100130004D1500084D1500084D1500084D15000817
:100140004D1500084D1500084D1500084D15000807
:100150004D1500084D1500084D1500084D150008F7
:100160004D1500084D1500084D1500084D150008E7
:100170004D1500084D1500084D1500084D150008D7
:100180004D1500084D1500084D1500084D150008C7
:100190004D150008000000004D1500084D15000821
:1001A0004D1500084D1500084D1500084D150008A7
:1001B0004D1500084D1500084D1500084D15000897
:1001C0004D1500084D1500084D1500084D15000887
:0801D0004D1500084D15000853
:1001E00053B94AB9002908BF00281CBF4FF0FF319E
:1001F0004FF0FF3000F00CB8ADF1080C6DE904CE03
:1002000008F0EEFEDDF804E0DDE9022304B07047FB
:10021000704700BF00000000000000000000000068
:1002200001F0FF01102A2BDB10F0070F08D010F8A7
:10023000013B013A8B422DD010F0070F42B3F6D1AB
:10024000F0B441EA012141EA014122F007047FF0C4
:1002500000070023F0E80256083C85EA010586EA1B
:10026000010685FA47F5A3FA87F586FA47F6A5FA57
:1002700087F68EB9EED1F0BC01F0FF0102F0070263
:1002800032B110F8013B013A83EA010313B1F8D10E
:100290000020704701387047002D06BF35460338EF
:1002A000073815F0010F07D1013015F4807F02BF28
:1002B000013015F4C03F0130F0BC0138704700BF79
:1002C0000348044B834202D0034B03B118477047E5
:1002D000D4010020D4010020000000000548064B96
:1002E0001B1AD90F01EBA301491002D0034B03B134
:1002F00018477047D4010020D401002000000000FE
:1003000010B5064C237843B9FFF7DAFF044B13B15D
:100310000448AFF300800123237010BDD4010020F6
:1003200000000000BC99000808B5054B1BB1054949
:100330000548AFF30080BDE80840FFF7CFBF00BF1E
:1003400000000000D8010020BC99000802440346C8
:10035000934200D1704703F8011BF9E770B50D4DCA
:100360000D4C641BA4100026A64209D10B4D0C4C69
:1003700009F024FB641BA4100026A64205D170BD21
:1003800055F8043B98470136EEE755F8043B98478B
:100390000136F2E7A89A0008A89A0008A89A00086F
:1003A000AC9A00087047704770B50F4E0C46316824
:1003B000054611B900F0A6F830602146284600F045
:1003C000A1F8431C03D14FF0FF34204670BDC41C7C
:1003D00024F00304A042F8D0211A284600F092F835
:1003E0000130F2D1EFE700BF2C0300202DE9F843E4
:1003F000CD1C25F0030508350C2D38BF0C25002D2C
:10040000064601DBA94204D90C2333600020BDE875
:10041000F883DFF8D48000F069F8D8F800301C4683
:1004200044BB29463046FFF7BFFF431C044658D162
:10043000D8F800402746002F43D1002C4BD023682A
:100440003946304604EB030900F05CF8814542D19F
:1004500021686D1A29463046FFF7A6FF01303AD0D1
:1004600023682B442360D8F800305A6862BBC8F870
:1004700000700FE02268521B20D40B2A17D9611993
:10048000A342256018BF5960636808BFC8F8001010
:1004900062514B60304600F02FF804F10B00231D31
:1004A00020F00700C21A1CBF1B1AA350AFE76268F6
:1004B000A3420CBFC8F800205A60EBE723466468EB
:1004C000AEE73C467F68B6E71A465B68A342FBD1BD
:1004D00000235360DEE70C233360304600F00CF855
:1004E00094E70560D6E700BF300300200148FFF71E
:1004F00059BF00BF280300200148FFF754BF00BFC9
:100500002803002038B5064D0023044608462B601A
:1005100000F0BEFF431C02D12B6803B1236038BD3D
:100520003403002038B50546002941D051F8043C79
:100530000C1F002BB8BFE418FFF7D8FF1D4A136843
:1005400033B9636014602846BDE83840FFF7D4BF74
:10055000A34208D9206821188B4201BF19685B6843
:1005600009182160EDE71A465B680BB1A342FAD97E
:1005700011685018A0420BD12068014450188342E2
:100580001160E0D118685B68536008441060DAE7D6
:1005900002D90C232B60D6E7206821188B4204BFB8
:1005A00019685B68636004BF091821605460CAE77A
:1005B00038BD00BF3003002080B598B000AF786030
:1005C00007F10C03542200211846FFF7BFFE7B6899
:1005D0001B68154A934222D14FF40053FB6000235D
:1005E000BB6407F10C03184605F01AF90346002B0B
:1005F00001D000F069FE0D4B9B6D0C4A43F40003E3
:1006000093650A4B9B6D03F40003BB60BB6800223B
:100610000021142005F0ADFE142005F0C4FE00BF3B
:100620006037BD4680BD00BF005C00400010024046
:1006300080B582B000AF78607B68D3F8D8227B6841
:1006400003F526731946104607F02AF900BF08374C
:10065000BD4680BD80B582B000AF78600B46FB70B0
:100660007B68D3F8D802FA78796813469B00134464
:10067000DB000B4403F5B2731A68FB78194607F0E8
:1006800064F900BF0837BD4680BD80B582B000AFB9
:1006900078600B46FB707B68D3F8D802FA787968EB
:1006A00013469B001344DB000B4424331A68FB7889
:1006B000194607F0ADF900BF0837BD4680BD80B5CB
:1006C00082B000AF78607B68D3F8D832184607F064
:1006D000C1FA00BF0837BD4680BD80B584B000AF09
:1006E00078600123FB737B685B79022B01D000F0FB
:1006F000EBFD7B68D3F8D832FA7B1146184607F039
:100700006BFA7B68D3F8D832184607F017FA00BFA7
:100710001037BD4680BD000080B582B000AF786064
:100720007B68D3F8D832184607F066FA7B685B7AA4
:10073000002B05D0044B1B69034A43F006031361E9
:1007400000BF0837BD4680BD00ED00E080B582B037
:1007500000AF78607B685B7A002B07D0084B1B6981
:10076000074A23F00603136100F0F8F97B68D3F819
:10077000D832184607F056FA00BF0837BD4680BD8C
:1007800000ED00E080B582B000AF78602B4A7B6856
:10079000C2F8D8327B68294AC3F8C422274B284ABA
:1007A0001A60264B08221A71244B02225A71234BDD
:1007B0000222DA71214B00221A72204B00225A7257
:1007C0001E4B00229A721D4B0022DA721B4800F069
:1007D000EFFE0346002B01D000F076FD7B68D3F8D6
:1007E000C40218230022002102F076FB7B68D3F8B4
:1007F000C40258230022802102F06EFB7B68D3F8EC
:10080000C402C0230022812102F066FB7B68D3F87A
:10081000C4024FF488730022012102F05DFB7B6863
:10082000D3F8C4024FF480730022822102F054FBFB
:10083000002318460837BD4680BD00BF380300209E
:10084000005C004080B584B000AF78600023FB738B
:100850000023BB737B68D3F8C432184600F076FFE0
:100860000346FB73FB7B184600F07EF90346BB731F
:10087000BB7B18461037BD4680BD80B584B000AF45
:100880007860084611461A460346FB700B46BB705B
:1008900013463B800023FB730023BB737B68D3F8B4
:1008A000C402BB783A88F97801F0BDF80346FB73BF
:1008B000FB7B184600F058F90346BB73BB7B184618
:1008C0001037BD4680BD80B584B000AF78600B4660
:1008D000FB700023FB730023BB737B68D3F8C43227
:1008E000FA781146184601F0FDF80346FB73FB7BCE
:1008F000184600F039F90346BB73BB7B1846103726
:10090000BD4680BD80B584B000AF78600B46FB70FB
:100910000023FB730023BB737B68D3F8C432FA78DF
:100920001146184601F0A6F90346FB73FB7B1846F7
:1009300000F01AF90346BB73BB7B18461037BD465F
:1009400080BD80B584B000AF78600B46FB7000239B
:10095000FB730023BB737B68D3F8C432FA7811466B
:10096000184601F0D9F90346FB73FB7B184600F0EB
:10097000FBF80346BB73BB7B18461037BD4680BDF2
:1009800080B485B000AF78600B46FB707B68D3F80D
:10099000C432FB6097F90330002B0BDAFB7803F0CD
:1009A0007F02F96813469B001344DB000B441233AB
:1009B0001B780BE0FB7803F07F02F96813469B007D
:1009C0001344DB000B4403F5A9731B781846143756
:1009D000BD465DF8047B704780B584B000AF786099
:1009E0000B46FB700023FB730023BB737B68D3F8BB
:1009F000C432FA781146184600F0F1FF0346FB7343
:100A0000FB7B184600F0B0F80346BB73BB7B18466F
:100A10001037BD4680BD80B586B000AFF8607A6003
:100A20003B600B46FB720023FB750023BB75FB6824
:100A3000D3F8C402F97A3B687A6801F0E4F8034617
:100A4000FB75FB7D184600F08FF80346BB75BB7D38
:100A500018461837BD4680BD80B586B000AFF86037
:100A60007A603B600B46FB720023FB750023BB756D
:100A7000FB68D3F8C402F97A3B687A6801F07AF827
:100A80000346FB75FB7D184600F06EF80346BB7508
:100A9000BB7D18461837BD4680BD80B582B000AF1B
:100AA00078600B46FB707B68D3F8C432FA78114645
:100AB000184601F090F8034618460837BD4680BD39
:100AC00080B582B000AF78600B46FB70FB78002BDE
:100AD00002D0012B13D023E07B685B7A002B07D078
:100AE00000F03CF8104B1B690F4A23F0060313611A
:100AF0007B68D3F8D832184607F094F810E07B688A
:100B0000D3F8D832184607F077F87B685B7A002B69
:100B100005D0054B1B69044A43F00603136100BF6F
:100B200000BF0837BD4680BD00ED00E080B483B053
:100B300000AF7860034B18460C37BD465DF8047B68
:100B4000704700BF1406002080B483B000AF786007
:100B500000BF0C37BD465DF8047B704780B500AF21
:100B600000F043FA00BF80BD80B485B000AF0346FB
:100B7000FB710023FB73FB79032B17D801A252F8FA
:100B800023F000BF950B00089B0B0008A10B000889
:100B9000A70B00080023FB730BE00323FB7308E0A3
:100BA0000123FB7305E00323FB7302E00323FB73C4
:100BB00000BFFB7B18461437BD465DF8047B7047C9
:100BC00080B500AF00221249124806F0C7FD034667
:100BD000002B01D000F078FB0F490E4806F0EEFD27
:100BE0000346002B01D000F06FFB0C49094808F0C8
:100BF00051F90346002B01D000F066FB054806F0D2
:100C000004FE0346002B01D000F05EFB00BF80BD58
:100C10005000002034080020D0000020A400002054
:100C200080B483B000AF03463960FB713B68122289
:100C30001A80034B18460C37BD465DF8047B70479D
:100C40007000002080B483B000AF03463960FB71B0
:100C50003B6804221A80034B18460C37BD465DF8EA
:100C6000047B70478400002080B582B000AF03464B
:100C70003960FB71FB79002B05D13A6807490848B8
:100C800007F0ABFD04E03A680449054807F0A5FD0C
:100C9000024B18460837BD4680BD00BF040B00203C
:100CA000D499000880B582B000AF03463960FB716B
:100CB0003A680449044807F090FD024B184608378B
:100CC000BD4680BD040B0020EC99000880B582B0C1
:100CD00000AF03463960FB713B681A221A8000F0AE
:100CE00043F8024B18460837BD4680BD88000020F7
:100CF00080B582B000AF03463960FB71FB79002BF1
:100D000005D13A680749084807F067FD04E03A68EA
:100D10000449054807F061FD024B18460837BD46F7
:100D200080BD00BF040B0020009A000880B582B08F
:100D300000AF03463960FB71FB79002B05D13A689F
:100D40000749084807F049FD04E03A6804490548A6
:100D500007F043FD024B18460837BD4680BD00BF73
:100D6000040B00200C9A000880B584B000AF0F4B34
:100D70001B68FB600E4B1B68BB600E4B1B687B60E7
:100D8000FA687B681344FB60FB68002B09D00822DB
:100D90000949F86800F014F804220849B86800F01E
:100DA0000FF800BF1037BD4680BD00BF9075FF1F14
:100DB0009475FF1F9875FF1F8A0000209A0000207D
:100DC00080B487B000AFF860B9601346FB710023B0
:100DD000FB750023FB7527E0FB681B0F092B0BD865
:100DE000FB681B0FDAB2FB7D5B001946BB680B4446
:100DF0003032D2B21A700AE0FB681B0FDAB2FB7D08
:100E00005B001946BB680B443732D2B21A70FB68DC
:100E10001B01FB60FB7D5B000133BA6813440022B9
:100E20001A70FB7D0133FB75FA7DFB799A42D3D3AF
:100E300000BF00BF1C37BD465DF8047B7047000053
:100E400080B500AF00220549054808F038F805498B
:100E5000034808F052F80023184680BD041500200E
:100E600034080020040D002080B400AF0023184691
:100E7000BD465DF8047B704780B483B000AF034685
:100E80003960FB711346BB80FB79232B4AD801A242
:100E900052F823F0250F0008250F0008250F000841
:100EA000250F0008250F0008250F0008250F000852
:100EB000250F0008250F0008250F0008250F000842
:100EC000250F0008250F0008250F0008250F000832
:100ED000250F0008250F0008250F0008250F000822
:100EE000250F0008250F0008250F0008250F000812
:100EF000250F0008250F0008250F0008250F000802
:100F0000250F0008250F0008250F0008250F0008F1
:100F1000250F0008250F0008250F0008250F0008E1
:100F2000250F000800BF002318460C37BD465DF8AA
:100F3000047B704780B582B000AF78603960796813
:100F4000054807F0DAFF044808F020F800231846A7
:100F50000837BD4680BD00BF3408002080B584B08E
:100F600000AF78600B467B800023FB730D4BD3F8FA
:100F7000BC32BB60BB68D3F81432002B01D0012314
:100F80000BE07B881A467968064807F098FF054809
:100F900007F0CCFF0346FB73FB7B18461037BD46BA
:100FA00080BD00BF3408002080B487B000AFF86077
:100FB000B9601346FB710023FB7597F9173018468B
:100FC0001C37BD465DF8047B704780B500AF03F069
:100FD00088FE00F00AF800F0E9F800F047F800F0A9
:100FE00099F8FFF7EDFD00BFFDE780B594B000AFC5
:100FF00007F11803382200211846FFF7A7F93B1D17
:1010000000221A605A609A60DA601A614FF4007028
:1010100005F020F82123BB614FF48033FB610123ED
:101020003B6300237B6307F11803184603F0CAFEF5
:101030000346002B01D000F047F90F237B60022309
:10104000BB600023FB6000233B6100237B613B1DF1
:101050000021184604F0C8F90346002B01D000F027
:1010600033F900BF5037BD4680BD000080B588B061
:1010700000AF07F1100300221A605A609A60DA602C
:101080003B1D00221A605A609A60204B204A1A6069
:101090001E4B00225A601D4B00229A601B4B4FF6DC
:1010A000FF72DA60194B00221A61184B00225A6154
:1010B000164B00229A61154805F08FF90346002B64
:1010C00001D000F001F94FF480533B6107F11003A8
:1010D00019460E4805F0D8F90346002B01D000F060
:1010E000F3F800237B600023BB600023FB603B1D03
:1010F0001946064805F02EFC0346002B01D000F0EF
:10110000E3F800BF2037BD4680BD00BF041D0020AE
:10111000002C014080B500AF224B234A1A60214BBE
:101120004FF4E1325A601F4B00229A601D4B00229F
:10113000DA601C4B00221A611A4B0C225A61194BBF
:1011400000229A61174B0022DA61164B00221A62C4
:10115000144B00225A62134B00229A62114805F088
:101160008FFC0346002B01D000F0AEF800210D48A3
:1011700006F02AFA0346002B01D000F0A5F8002162
:10118000084806F05FFA0346002B01D000F09CF8F7
:10119000044806F0E0F90346002B01D000F094F873
:1011A00000BF80BD501D00200038014080B588B0D0
:1011B00000AF07F10C0300221A605A609A60DA60EF
:1011C0001A61334BDB6C324A43F00403D364304B77
:1011D000DB6C03F00403BB60BB682D4BDB6C2C4A5B
:1011E00043F02003D3642A4BDB6C03F020037B60C5
:1011F0007B68274BDB6C264A43F00103D364244B06
:10120000DB6C03F001033B603B68002201212148B5
:1012100004F0D6FE002220214FF0904004F0D0FED2
:101220004FF40053FB604FF488133B6100237B6154
:1012300007F10C031946174804F040FD0123FB6039
:1012400001233B6100237B610023BB6107F10C0399
:101250001946104804F032FD2023FB6001233B6156
:1012600000237B610023BB6107F10C0319464FF09B
:10127000904004F023FD00220021282005F079F899
:10128000282005F090F800BF2037BD4680BD00BF84
:10129000001002400008004880B582B000AF03464D
:1012A000FB80FB88B3F5005F07D120214FF0904011
:1012B00004F09EFE034800F04BF900BF0837BD461E
:1012C00080BD00BF1C9A000880B400AF72B600BF9A
:1012D00000BFFDE780B400AF00BFFDE780B400AF02
:1012E00000BFFDE780B400AF00BFFDE780B400AFF2
:1012F00000BFFDE780B400AF00BFFDE780B400AFE2
:1013000000BFBD465DF8047B704780B400AF00BFEE
:10131000BD465DF8047B704780B400AF00BFBD469A
:101320005DF8047B704780B500AF03F02DFD00BF72
:1013300080BD000080B500AF024800F029FA00BF70
:1013400080BD00BF3803002080B500AF4FF40050CF
:1013500004F068FE00BF80BD80B582B000AF0F4BC7
:101360001B6E0E4A43F0010313660C4B1B6E03F019
:1013700001037B607B68094B9B6D084A43F08053F7
:101380009365064B9B6D03F080533B603B6804F014
:1013900005FF00BF0837BD4680BD00BF00100240FA
:1013A00080B485B000AF78607B681B680A4A9342BE
:1013B0000BD10A4B1B6E094A43F400631366074BBB
:1013C0001B6E03F40063FB60FB6800BF1437BD466F
:1013D0005DF8047B704700BF002C01400010024004
:1013E00080B59EB000AF786007F1640300221A60F8
:1013F0005A609A60DA601A6107F1100354220021E2
:101400001846FEF7A3FF7B681B681E4A934235D13E
:1014100001233B6100237B6107F11003184604F0B0
:10142000FFF90346002B01D0FFF74EFF164B1B6E52
:10143000154A43F480431366134B1B6E03F4804339
:10144000FB60FB68104BDB6C0F4A43F00403D36472
:101450000D4BDB6C03F00403BB60BB6830237B6681
:101460000223BB660023FB6600233B6707237B67E1
:1014700007F164031946054804F020FC00BF7837E3
:10148000BD4680BD00380140001002400008004801
:1014900080B586B000AF7860144A154BD31A7B61D3
:1014A0007B693B61134B1B68002B02D1114B124A25
:1014B0001A60104B1A687B6813443A699A4207D243
:1014C00007F026FF03460C221A604FF0FF3309E0B5
:1014D000084B1B68FB60074B1A687B681344054A7E
:1014E0001360FB6818461837BD4680BD0000022017
:1014F00000040000E41D0020701E00200D488546F9
:1015000000F044F80C480D490D4A002302E0D4587D
:10151000C4500433C4188C42F9D30A4A0A4C00233D
:1015200001E013600432A242FBD3FEF717FFFFF77E
:101530004CFDFEE70000022000000020D401002046
:10154000B09A0008D4010020701E0020FEE70000C1
:101550000FB480B582B000AF07F114033B603B6865
:101560003A698021084807F0C5FE78607B689BB225
:1015700019460548FFF7F2FC7B6818460837BD4658
:10158000BDE8804004B07047E81D002080B400AF83
:10159000064BD3F88830054A43F47003C2F888300C
:1015A00000BFBD465DF8047B704700BF00ED00E062
:1015B00080B584B000AF78607B68002B01D1012337
:1015C000C0E07B6893F89132DBB2002B06D17B68D8
:1015D000002283F890227868FEF7EEFF7B680322F2
:1015E00083F891227B681B68184601F0F9FC002300
:1015F000FB733EE0FA7B796813469B001344DB00E3
:101600000B44113301221A70FA7B796813469B0050
:101610001344DB000B441033FA7B1A70FA7B7968B1
:1016200013469B001344DB000B44133300221A7053
:10163000FA7B796813469B001344DB000B4420338C
:1016400000221A60FA7B796813469B001344DB0082
:101650000B44243300221A60FB7B79685A1C134622
:101660009B001344DB000B4400221A60FB7B013318
:10167000FB737B681B79FA7B9A42BBD30023FB7315
:1016800044E0FA7B796813469B001344DB000B446B
:1016900003F2511300221A70FA7B796813469B00FB
:1016A0001344DB000B4403F5A873FA7B1A70FA7B32
:1016B000796813469B001344DB000B4403F2531379
:1016C00000221A70FA7B796813469B001344DB00F2
:1016D0000B4403F5B07300221A60FA7B7968134655
:1016E0009B001344DB000B4403F5B27300221A6025
:1016F000FA7B796813469B001344DB000B4403F527
:10170000B47300221A60FB7B0133FB737B681B7987
:10171000FA7B9A42B5D37B6818687B68043393E8F8
:10172000060001F078FC7B6800221A737B680122B6
:1017300083F891227B689B7A012B02D1786801F0B3
:101740000EFC002318461037BD4680BD80B582B020
:1017500000AF78607B6893F89032012B01D10223AF
:1017600012E07B68012283F890227B681B68184690
:1017700001F01FFC7B681B68184603F0FDF97B68CD
:10178000002283F89022002318460837BD4680BD0A
:1017900080B584B000AF78607B681B68184603F0A2
:1017A00002FAF860FB6803F40043002B03D078686A
:1017B00000F006FB10E1FB6803F48063002B13D0FC
:1017C0007B681B68B3F844309AB27B681B6822F4CC
:1017D000806292B2A3F844207868FEF77EFF002171
:1017E000786800F0FCF8F7E0FB6803F48043002B16
:1017F0000CD07B681B68B3F844309AB27B681B68D6
:1018000022F4804292B2A3F84420E5E0FB6803F49E
:101810000053002B0CD07B681B68B3F844309AB29D
:101820007B681B6822F4005292B2A3F84420D3E0F4
:10183000FB6803F48053002B34D07B681B68B3F83B
:1018400040309AB27B681B6822F0040292B2A3F87F
:1018500040207B681B68B3F840309AB27B681B68F5
:1018600022F0080292B2A3F840207B6893F8C832B5
:10187000012B07D17B68002283F8C82200217868F9
:10188000FFF71EF97868FEF761FF7B681B68B3F805
:1018900044309AB27B681B6822F4805292B2A3F85B
:1018A000442099E0FB6803F40063002B27D07B6899
:1018B0001B68B3F840309AB27B681B6842F008029C
:1018C00092B2A3F840207B681B68B3F844309AB208
:1018D0007B681B6822F4006292B2A3F844207B6804
:1018E0001B68B3F840309AB27B681B6842F0040270
:1018F00092B2A3F840207868FEF70EFF6CE0FB6818
:1019000003F08003002B40D07B681B68B3F84430A1
:101910009AB27B681B6822F0800292B2A3F844203E
:101920007B6893F8C832002B2BD17B681B68B3F817
:1019300040309AB27B681B6842F0040292B2A3F86E
:1019400040207B681B68B3F840309AB27B681B6804
:1019500042F0080292B2A3F840207B68012283F88B
:10196000C8227B681B68B3F854309BB29B0803F015
:101970003C027B68C3F8CC2201217868FFF7A0F80D
:101980002AE07868FEF7C8FE26E0FB6803F40073DF
:10199000002B0FD07B681B68B3F844309AB27B6889
:1019A0001B6822F4007292B2A3F844207868FEF714
:1019B00086FE11E0FB6803F48073002B0CD07B687B
:1019C0001B68B3F844309AB27B681B6822F48072BB
:1019D00092B2A3F8442000BF1037BD4680BD80B549
:1019E00082B000AF78600B46FB707B6893F8903252
:1019F000012B01D1022312E07B68012283F890229F
:101A00007B68FA781A737B681B68FA781146184667
:101A100003F09EF87B68002283F89022002318468A
:101A20000837BD4680BD80B584B000AF78600846F9
:101A300011461A460346FB700B463B801346BB70AB
:101A40000023FB7297F90330002B0EDAFB7803F0CA
:101A5000070213469B001344DB0010337A681344DB
:101A6000FB60FB6801225A700EE0FB7803F007026E
:101A700013469B001344DB0003F5A8737A681344F4
:101A8000FB60FB6800225A70FB7803F00703DAB2B0
:101A9000FB681A703B88C3F30A02FB681A61FB6893
:101AA000BA78DA70BB78022B02D1FB6800221A7177
:101AB0007B6893F89032012B01D102230EE07B6802
:101AC000012283F890227B681B68F968184601F0B0
:101AD000C1FA7B68002283F89022FB7A18461037FF
:101AE000BD4680BD80B584B000AF78600B46FB700A
:101AF00097F90330002B0EDAFB7803F00702134648
:101B00009B001344DB0010337A681344FB60FB68CE
:101B100001225A700EE0FB7803F0070213469B0087
:101B20001344DB0003F5A8737A681344FB60FB6879
:101B300000225A70FB7803F00703DAB2FB681A70D0
:101B40007B6893F89032012B01D102230EE07B6871
:101B5000012283F890227B681B68F968184601F01F
:101B600061FF7B68002283F890220023184610371B
:101B7000BD4680BD80B586B000AFF8607A603B603E
:101B80000B46FB72FB7A03F0070213469B001344DB
:101B9000DB0003F5A873FA6813447B617B697A68FC
:101BA0005A617B693A689A617B690022DA617B69D4
:101BB00000225A70FB7A03F00703DAB27B691A70CD
:101BC000FB681B687969184602F019F9002318466A
:101BD0001837BD4680BD80B483B000AF78600B4637
:101BE000FB70FB7803F00702796813469B001344EF
:101BF000DB000B4403F5B6731B6818460C37BD4673
:101C00005DF8047B704780B586B000AFF8607A60FD
:101C10003B600B46FB72FB7A03F0070213469B0006
:101C20001344DB001033FA6813447B617B697A68E4
:101C30005A617B693A689A617B69012283F82420A2
:101C40007B693A681A627B690022DA617B6901224A
:101C50005A70FB7A03F00703DAB27B691A70FB68EB
:101C60001B687969184602F0CAF80023184618372D
:101C7000BD4680BD80B584B000AF78600B46FB7078
:101C8000FB7803F007037A681279934201D90123A4
:101C90003EE097F90330002B0EDAFB7803F00702E1
:101CA00013469B001344DB0010337A681344FB6037
:101CB000FB6801225A700CE0FA7813469B0013442B
:101CC000DB0003F5A8737A681344FB60FB6800220D
:101CD0005A70FB6801229A70FB7803F00703DAB2AE
:101CE000FB681A707B6893F89032012B01D10223B4
:101CF0000EE07B68012283F890227B681B68F968FC
:101D0000184602F02BFE7B68002283F89022002305
:101D100018461037BD4680BD80B584B000AF7860EE
:101D20000B46FB70FB7803F00F037A68127993423D
:101D300001D9012340E097F90330002B0EDAFB783C
:101D400003F0070213469B001344DB0010337A684C
:101D50001344FB60FB6801225A700EE0FB7803F02D
:101D6000070213469B001344DB0003F5A8737A684F
:101D70001344FB60FB6800225A70FB6800229A70D3
:101D8000FB7803F00703DAB2FB681A707B6893F8FC
:101D90009032012B01D102230EE07B68012283F8EF
:101DA00090227B681B68F968184602F028FE7B6861
:101DB000002283F89022002318461037BD4680BDCC
:101DC00080B592B000AF786033E37B681B68B3F8EE
:101DD00044307B877B8FDBB203F00F0387F8393009
:101DE00097F83930002B40F008817B8F03F0100307
:101DF000002B4CD17B681B681B889BB223F4E1430A
:101E000023F070033B817B681A683B896FEA434388
:101E10006FEA53439BB213807B6810333B647B684B
:101E20001B68B3F850309BB21A463B6C1B78DB0042
:101E300013447A681268134403F202431B88C3F305
:101E400009023B6CDA613B6C5A693B6CDB691A44F2
:101E50003B6C5A6100217868FEF717FC7B681B7B9E
:101E6000DBB2002B00F0E5823B6C9B69002B40F05D
:101E7000E0827B681B7BDBB263F07F03DAB27B68B6
:101E80001B68A3F84C207B6800221A73D1E27B68A0
:101E900003F5A8733B647B681B681B88FB86FB8E7D
:101EA00003F40063002B32D07B681B68B3F850301A
:101EB0009BB21A463B6C1B78DB0013447A681268AD
:101EC000134403F206431B88C3F309023B6CDA6137
:101ED0007B6818687B6803F526713B6CDA883B6C7D
:101EE000DB699BB202F0B1FE7B681B681B889AB26B
:101EF00040F68F7313407B817B681B687A8942F0C0
:101F0000800292B21A807868FEF792FB91E2B7F9EC
:101F10003630002B80F28D827B681B681B889AB25A
:101F200040F68F731340FB817B681B68FA8942F08F
:101F3000800292B21A807B681B68B3F850309BB263
:101F40001A463B6C1B78DB0013447A681268134412
:101F500003F206431B88C3F309023B6CDA613B6C56
:101F6000DB69002B19D03B6C5B69002B15D07B68BB
:101F700018683B6C59693B6CDA883B6CDB699BB237
:101F800002F063FE3B6C5A693B6CDB691A443B6CA4
:101F90005A6100217868FEF75DFB7B681B681B882F
:101FA000FB86FB8E03F40063002B40F04282FB8E25
:101FB00003F44053B3F5405F00F03B827B681B683D
:101FC0001B889BB223F4804323F07003BB81BB8941
:101FD00083F48053BB81BB8983F40053BB817B684E
:101FE0001A68BB8943F07F4343F47F0343F4004303
:101FF00043F080039BB213801BE27B681B681A4688
:1020000097F839309B0013441B88FB86B7F93630AC
:10201000002B80F2F1807B681B681A4697F83930F4
:102020009B0013441B889AB240F68F731340BB8603
:102030007B681B681A4697F839309B001344BA8EA8
:1020400042F0800292B21A8097F8392013469B0022
:102050001344DB0003F5A8737A6813443B643B6CBC
:102060001B7B002B23D17B681B68B3F850309BB2DD
:102070001A463B6C1B78DB0013447A6812681344E1
:1020800003F206431B88C3F30903A7F84630B7F8E9
:102090004630002B00F08B807B6818683B6C5969D8
:1020A0003B6CDA88B7F8463002F0CFFD7FE03B6C3E
:1020B000DB78022B09D1FB8E1A46396C786800F068
:1020C000C6F90346A7F8463071E07B681B681A46DC
:1020D0003B6C1B789B0013441B889BB223F4E043AA
:1020E00023F07003BB877B681B681A463B6C1B7828
:1020F0009B001A44BB8F43F07F4343F47F0343F4B8
:10210000004343F0C0039BB213807B681B681A46F0
:102110003B6C1B789B0013441B889BB203F48043E9
:10212000002B22D07B681B68B3F850309BB21A4654
:102130003B6C1B78DB0013447A681268134403F28B
:1021400002431B88C3F30903A7F84630B7F84630AB
:10215000002B2CD07B6818683B6C59693B6C1A8942
:10216000B7F8463002F071FD21E07B681B68B3F8D8
:1021700050309BB21A463B6C1B78DB0013447A68E4
:102180001268134403F206431B88C3F30903A7F83C
:102190004630B7F84630002B09D07B6818683B6C96
:1021A00059693B6C5A89B7F8463002F04EFD3B6CDA
:1021B000DA69B7F846301A443B6CDA613B6C5A690D
:1021C000B7F846301A443B6C5A613B6C9B69002B54
:1021D00005D0B7F846203B6C1B699A4206D23B6C8F
:1021E0001B7819467868FEF735FA05E07B681B68AE
:1021F000396C184601F003FEFB8E03F08003002BC0
:1022000000F0178197F8392013469B001344DB0038
:1022100010337A6813443B647B681B681A4697F84E
:1022200039309B0013441B889BB223F4E14323F015
:102230007003FB877B681B681A4697F839309B0050
:102240001A44FB8F6FEA43436FEA53439BB21380F8
:102250003B6CDB78012B40F0A1803B6C00229A6143
:102260003B6C1B7B002B00F09280FB8E03F0400345
:10227000002B46D03B6C5B78002B26D17B681B681B
:102280007B617B681B68B3F850309BB21A467B6950
:1022900013447B613B6C1B78DA007B69134403F2C7
:1022A00002433B613B691B889BB2C3F309039AB2AB
:1022B0003B691A803B691B889BB26FEA43436FEA14
:1022C00053439AB23B691A8061E03B6C5B78012B07
:1022D0005DD17B681B68FB617B681B68B3F850307D
:1022E0009BB21A46FB691344FB613B6C1B78DA0016
:1022F000FB69134403F20243BB61BB6900221A80ED
:1023000045E07B681B68FB623B6C5B78002B26D149
:102310007B681B687B627B681B68B3F850309BB29C
:102320001A467B6A13447B623B6C1B78DA007B6A3B
:10233000134403F206433B623B6A1B889BB2C3F320
:1023400009039AB23B6A1A803B6A1B889BB26FEA08
:1023500043436FEA53439AB23B6A1A8017E03B6CDF
:102360005B78012B13D17B681B68B3F850309BB2AC
:102370001A46FB6A1344FB623B6C1B78DA00FB6A6B
:10238000134403F20643BB62BB6A00221A803B6C13
:102390001B7819467868FEF778F94AE0FB8E03F45B
:1023A0008073002B3FD17B681B68B3F850309BB221
:1023B0001A463B6C1B78DB0013447A68126813449E
:1023C00003F202431B88C3F309037B863B6C9A69C3
:1023D0007B8E9A4206D93B6C9A697B8ED21A3B6CF3
:1023E0009A6102E03B6C00229A613B6C9B69002B76
:1023F00006D13B6C1B7819467868FEF746F918E061
:102400003B6C5A697B8E1A443B6C5A613B6CDA69AF
:102410007B8E1A443B6CDA617B681B68396C18460A
:1024200001F0EDFC05E0FB8E1A46396C786800F08F
:1024300017F97B681B68B3F844309BB21BB2002BC2
:10244000FFF6C3AC002318464837BD4680BD80B5B3
:1024500088B000AFF860B9601346FB80FB8803F4D6
:102460008043002B7CD0FB681B68B3F850309BB2D4
:102470001A46BB681B78DB001344FA6812681344E1
:1024800003F202431B88C3F309037B83BB689A6989
:102490007B8B9A4206D3BB689A697B8BD21ABB6846
:1024A0009A6102E0BB6800229A61BB689B69002BBD
:1024B00023D1FB681B681A46BB681B789B0013443A
:1024C0001B889BB223F4804323F070033B833B8B38
:1024D00083F400533B83FB681B681A46BB681B7878
:1024E0009B001A443B8B43F07F4343F47F0343F448
:1024F000004343F080039BB21380FB8803F040034A
:10250000002B1FD0FB681B681A46BB681B789B001A
:1025100013441B889BB223F4E04323F07003FB8237
:10252000FB681B681A46BB681B789B001A44FB8A31
:1025300043F07F4343F47F0343F4004343F0C0037D
:102540009BB213807B8B002B00F08580FB681868A2
:10255000BB685969BB681A897B8B02F076FB7AE00D
:10256000FB681B68B3F850309BB21A46BB681B78F7
:10257000DB001344FA681268134403F206431B8815
:10258000C3F309037B83BB689A697B8B9A4206D3AA
:10259000BB689A697B8BD21ABB689A6102E0BB6800
:1025A00000229A61BB689B69002B23D1FB681B68E2
:1025B0001A46BB681B789B0013441B889BB223F40C
:1025C000804323F07003FB83FB8B83F40053FB8376
:1025D000FB681B681A46BB681B789B001A44FB8B80
:1025E00043F07F4343F47F0343F4004343F080030D
:1025F0009BB21380FB8803F04003002B1FD1FB68C4
:102600001B681A46BB681B789B0013441B889BB24F
:1026100023F4E04323F07003BB83FB681B681A4676
:10262000BB681B789B001A44BB8B43F07F4343F489
:102630007F0343F4004343F0C0039BB213807B8BC2
:10264000002B08D0FB681868BB685969BB685A89B9
:102650007B8B02F0FAFA7B8B18462037BD4680BD93
:1026600080B5A6B000AFF860B9601346FB80FB8868
:1026700003F04003002B00F0F781FB681B68B3F800
:1026800050309BB21A46BB681B78DB001344FA68D3
:102690001268134403F202431B88C3F30903A7F82B
:1026A0009630BB689A69B7F896309A4207D9BB68EA
:1026B0009A69B7F89630D21ABB689A6102E0BB6893
:1026C00000229A61BB689B69002B40F0E180BB68E7
:1026D0005B78002B26D1FB681B683B63FB681B689B
:1026E000B3F850309BB21A463B6B13443B63BB6854
:1026F0001B78DA003B6B134403F20243FB62FB6A74
:102700001B889BB2C3F309039AB2FB6A1A80FB6A67
:102710001B889BB26FEA43436FEA53439AB2FB6A4A
:102720001A801AE0BB685B78012B16D1FB681B6826
:10273000BB63FB681B68B3F850309BB21A46BB6B97
:102740001344BB63BB681B78DA00BB6B134403F212
:1027500002437B637B6B00221A80FB681B68BB62B1
:10276000BB685B78002B26D1FB681B683B62FB686B
:102770001B68B3F850309BB21A463B6A13443B6265
:10278000BB681B78DA003B6A134403F20643FB6123
:10279000FB691B889BB2C3F309039AB2FB691A80D9
:1027A000FB691B889BB26FEA43436FEA53439AB2BB
:1027B000FB691A8017E0BB685B78012B13D1FB68BB
:1027C0001B68B3F850309BB21A46BB6A1344BB6215
:1027D000BB681B78DA00BB6A134403F206437B62D2
:1027E0007B6A00221A80BB68DB78022B23D1FB684E
:1027F0001B681A46BB681B789B0013441B889BB25E
:1028000023F4E04323F040037B837B8B83F020039E
:102810007B83FB681B681A46BB681B789B001A44C5
:102820007B8B43F07F4343F47F0343F4004343F047
:1028300080039BB21380BB681B781946F868FDF7CC
:1028400024FFFB8803F48043002B1FD0FB681B6828
:102850001A46BB681B789B0013441B889BB223F469
:10286000E04323F070033B83FB681B681A46BB6898
:102870001B789B001A443B8B43F07F4343F47F0358
:1028800043F4404343F080039BB2138000231FE3D3
:10289000FB8803F48043002B21D0FB681B681A4699
:1028A000BB681B789B0013441B889BB223F4E04356
:1028B00023F07003A7F84E30FB681B681A46BB680C
:1028C0001B789B001A44B7F84E3043F07F4343F423
:1028D0007F0343F4404343F080039BB21380BB6803
:1028E00093F82430012B40F0CA82BB685A69B7F8CC
:1028F00096301A44BB685A61BB68DA69B7F89630FB
:102900001A44BB68DA61BB681A6ABB681B699A42E1
:1029100009D3BB681B69BB65BB681A6ABB6DD21A59
:10292000BB681A6215E0BB681B6A002B07D1B7F8B9
:102930009630BB65BB68002283F8242009E0BB68A1
:10294000002283F82420BB681B6ABB65BB68002299
:102950001A62BB685B78002B5FD1FB681B683B6425
:10296000FB681B68B3F850309BB21A463B6C1344AB
:102970003B64BB681B78DA003B6C134403F20243F0
:10298000FB63FB6B1B889BB2C3F309039AB2FB6B1F
:102990001A80BB6D002B0AD1FB6B1B889BB26FEAC0
:1029A00043436FEA53439AB2FB6B1A8051E0BB6D0D
:1029B0003E2B16D8BB6D5B083B65BB6D03F0010376
:1029C000002B02D03B6D01333B65FB6B1B889AB239
:1029D0003B6D9BB29B029BB213439AB2FB6B1A8076
:1029E00037E0BB6D5B093B65BB6D03F01F03002B3C
:1029F00002D13B6D013B3B65FB6B1B889AB23B6D83
:102A00009BB29B029BB213439BB26FEA43436FEAB4
:102A100053439AB2FB6B1A801BE0BB685B78012BB7
:102A200017D1FB681B68BB64FB681B68B3F85030A8
:102A30009BB21A46BB6C1344BB64BB681B78DA00BC
:102A4000BB6C134403F202437B64BB6D9AB27B6C94
:102A50001A80FB681868BB685969BB681A89BB6D26
:102A60009BB202F0B0F80AE2FB681B68B3F8503082
:102A70009BB21A46BB681B78DB001344FA681268E5
:102A8000134403F206431B88C3F30903A7F89630E7
:102A9000BB689A69B7F896309A4207D3BB689A69BF
:102AA000B7F89630D21ABB689A6102E0BB68002280
:102AB0009A61BB689B69002B40F0F680BB685B782D
:102AC000002B26D1FB681B687B67FB681B68B3F88B
:102AD00050309BB21A467B6F13447B67BB681B78F0
:102AE000DA007B6F134403F202433B673B6F1B88A2
:102AF0009BB2C3F309039AB23B6F1A803B6F1B88EA
:102B00009BB26FEA43436FEA53439AB23B6F1A801A
:102B10001AE0BB685B78012B16D1FB681B68FB676A
:102B2000FB681B68B3F850309BB21A46FB6F134426
:102B3000FB67BB681B78DA00FB6F134403F20243A8
:102B4000BB67BB6F00221A80FB681B68C7F8843024
:102B5000BB685B78002B2FD1FB681B68C7F88C30F3
:102B6000FB681B68B3F850309BB21A46D7F88C301C
:102B70001344C7F88C30BB681B78DA00D7F88C3068
:102B8000134403F20643C7F88830D7F888301B880F
:102B90009BB2C3F309039AB2D7F888301A80D7F8EA
:102BA00088301B889BB26FEA43436FEA53439AB263
:102BB000D7F888301A801CE0BB685B78012B18D1ED
:102BC000FB681B68B3F850309BB21A46D7F88430C4
:102BD0001344C7F88430BB681B78DA00D7F8843018
:102BE000134403F20643C7F88030D7F88030002240
:102BF0001A80BB68DB78022B27D1FB681B681A465A
:102C0000BB681B789B0013441B889BB223F4E043F2
:102C100023F04003A7F89430B7F8943083F02003F2
:102C2000A7F89430FB681B681A46BB681B789B00AA
:102C30001A44B7F8943043F07F4343F47F0343F4DE
:102C4000004343F080039BB21380BB681B78194696
:102C5000F868FDF71AFDFB8803F48043002B21D1AF
:102C6000FB681B681A46BB681B789B0013441B88D3
:102C70009BB223F4E04323F07003A7F89230FB6883
:102C80001B681A46BB681B789B001A44B7F8923041
:102C900043F07F4343F47F0343F4404343F0800316
:102CA0009BB21380002313E1FB8803F48043002BC5
:102CB00021D1FB681B681A46BB681B789B00134434
:102CC0001B889BB223F4E04323F07003A7F856302F
:102CD000FB681B681A46BB681B789B001A44B7F850
:102CE000563043F07F4343F47F0343F4404343F0C3
:102CF00080039BB21380BB6893F82430012B40F013
:102D0000BE80BB685A69B7F896301A44BB685A61EE
:102D1000BB68DA69B7F896301A44BB68DA61BB68F9
:102D20001A6ABB681B699A4209D3BB681B69BB65F9
:102D3000BB681A6ABB6DD21ABB681A6215E0BB6821
:102D40001B6A002B07D1B7F89630BB65BB68002221
:102D500083F8242009E0BB681B6ABB65BB680022BE
:102D60001A62BB68002283F82420FB681B68FB659D
:102D7000BB685B78002B5FD1FB681B68BB66FB6898
:102D80001B68B3F850309BB21A46BB6E1344BB6647
:102D9000BB681B78DA00BB6E134403F206437B6604
:102DA0007B6E1B889BB2C3F309039AB27B6E1A80B9
:102DB000BB6D002B0AD17B6E1B889BB26FEA43432D
:102DC0006FEA53439AB27B6E1A804EE0BB6D3E2B86
:102DD00016D8BB6D5B083B66BB6D03F00103002B8F
:102DE00002D03B6E01333B667B6E1B889AB23B6E12
:102DF0009BB29B029BB213439AB27B6E1A8034E063
:102E0000BB6D5B093B66BB6D03F01F03002B02D15A
:102E10003B6E013B3B667B6E1B889AB23B6E9BB25E
:102E20009B029BB213439BB26FEA43436FEA534347
:102E30009AB27B6E1A8018E0BB685B78012B14D1C4
:102E4000FB681B68B3F850309BB21A46FB6D134405
:102E5000FB65BB681B78DA00FB6D134403F2064385
:102E6000FB66BB6D9AB2FB6E1A80FB681868BB6884
:102E70005969BB685A89BB6D9BB201F0A4FEFB681F
:102E80001B681A46BB681B789B0013441B889BB2C7
:102E900023F4E04323F04003FB82FB8A83F010031A
:102EA000FB82FB8A83F02003FB82FB681B681A46C7
:102EB000BB681B789B001A44FB8A43F07F4343F4B2
:102EC0007F0343F4004343F080039BB2138000234D
:102ED00018469837BD4680BD80B487B000AFF86013
:102EE0007B600B467B8113463B817B8903F080032B
:102EF0009BB2002B0BD07B8903F0070213469B008B
:102F00001344DB001033FA6813447B6109E07A89CB
:102F100013469B001344DB0003F5A873FA681344BF
:102F20007B613B89002B07D17B6900221A737B6888
:102F30009AB27B69DA800BE07B6901221A737B68A5
:102F40009AB27B691A817B681B0C9AB27B695A81A1
:102F5000002318461C37BD465DF8047B704780B4DB
:102F600085B000AF78607B681B68FB607B680122DE
:102F7000C3F8D0227B68002283F8C822FB68B3F82C
:102F800054309BB243F001039AB2FB68A3F854207B
:102F9000FB68B3F854309BB243F002039AB2FB686B
:102FA000A3F85420002318461437BD465DF8047B6F
:102FB000704780B485B000AF78607B680022A3F8CA
:102FC00044204BF68073FB60FB689AB27B68A3F8E1
:102FD0004020002318461437BD465DF8047B704737
:102FE00080B485B000AF78604BF68073FB607B687F
:102FF000B3F840309AB2FB689BB2DB439BB21340FC
:103000009AB27B68A3F84020002318461437BD46C7
:103010005DF8047B704780B485B000AFF8603B1D5D
:1030200083E80600FB680122A3F84020FB68002229
:10303000A3F84020FB680022A3F84420FB6800228C
:10304000A3F85020002318461437BD465DF8047BD2
:103050007047000080B4A7B000AF786039600023EB
:1030600087F897307A683B681B789B0013441B886D
:103070009BB223F4EC4323F07003A7F894303B6831
:10308000DB78032B1FD801A252F823F09D300008F3
:10309000B9300008CF300008AB300008B7F89430E2
:1030A00043F40073A7F8943012E0B7F8943043F477
:1030B000C063A7F894300BE0B7F8943043F4806312
:1030C000A7F8943004E0012387F8973000E000BFB0
:1030D0007A683B681B789B001A44B7F8943043F039
:1030E0007F4343F47F0343F4004343F080039BB2E8
:1030F00013807A683B681B789B0013441B889BB243
:103100001BB223F4E04323F070031AB23B681B7830
:103110001BB213431BB2A7F886307A683B681B7852
:103120009B001A44B7F8863043F07F4343F47F0393
:1031300043F4004343F080039BB213803B681B7B46
:10314000002B40F080813B685B78002B00F084808E
:103150007B68BB617B68B3F850309BB21A46BB6991
:103160001344BB613B681B78DA00BB69134403F569
:1031700080637B613B68DB885B089BB25B009AB233
:103180007B691A807A683B681B789B0013441B8814
:103190007B827B8A03F04003002B1BD07A683B685C
:1031A0001B789B0013441B889BB223F4E04323F05D
:1031B00070033B827A683B681B789B001A443B8A09
:1031C00043F07F4343F47F0343F4004343F0C003E1
:1031D0009BB213803B68DB78012B20D07A683B6878
:1031E0001B789B0013441B889BB223F4E04323F01D
:1031F0004003BB81BB8983F02003BB817A683B68B5
:103200001B789B001A44BB8943F07F4343F47F0340
:1032100043F4004343F080039BB21380F9E37A68E0
:103220003B681B789B0013441B889BB223F4E0434C
:1032300023F04003FB817A683B681B789B001A44AB
:10324000FB8943F07F4343F47F0343F4004343F09F
:1032500080039BB21380DCE37B683B637B68B3F83D
:1032600050309BB21A463B6B13443B633B681B7860
:10327000DA003B6B134403F20443FB623B68DB88D8
:103280005B089BB25B009AB2FB6A1A807B68BB62E8
:103290007B68B3F850309BB21A46BB6A1344BB62DA
:1032A0003B681B78DA00BB6A134403F206437B6277
:1032B0007B6A1B889BB2C3F309039AB27B6A1A80AC
:1032C0003B681B69002B0AD17B6A1B889BB26FEAA3
:1032D00043436FEA53439AB27B6A1A8041E03B68EA
:1032E0001B693E2B1CD83B681B695B08C7F89030F4
:1032F0003B681B6903F00103002B04D0D7F8903022
:103300000133C7F890307B6A1B889AB2D7F89030A7
:103310009BB29B029BB213439AB27B6A1A8020E055
:103320003B681B695B09C7F890303B681B6903F079
:103330001F03002B04D1D7F89030013BC7F8903021
:103340007B6A1B889AB2D7F890309BB29B029BB2E3
:1033500013439BB26FEA43436FEA53439AB27B6ACB
:103360001A807A683B681B789B0013441B887B8417
:103370007B8C03F48043002B1BD07A683B681B785E
:103380009B0013441B889BB223F4E04323F070039B
:103390003B847A683B681B789B001A443B8C43F063
:1033A0007F4343F47F0343F4404343F080039BB2E5
:1033B00013803B681B78002B24D17A683B681B780C
:1033C0009B0013441B889BB223F4804323F07003BB
:1033D000BB83BB8B83F48053BB83BB8B83F40053D1
:1033E000BB837A683B681B789B001A44BB8B43F015
:1033F0007F4343F47F0343F4004343F080039BB2D5
:10340000138006E37A683B681B789B0013441B8893
:103410009BB223F4804323F07003FB83FB8B83F484
:103420000053FB837A683B681B789B001A44FB8B34
:1034300043F07F4343F47F0343F4004343F08003AE
:103440009BB21380E5E23B68DB78022B1ED17A68E1
:103450003B681B789B0013441B889BB223F4E0431A
:1034600023F07003A7F882307A683B681B789B00D2
:103470001A44B7F8823043F07F4343F47F0343F4A8
:10348000014343F080039BB213801DE07A683B68E0
:103490001B789B0013441B889BB223F4E24323F068
:1034A0007003A7F884307A683B681B789B001A4445
:1034B000B7F8843043F07F4343F47F0343F4004381
:1034C00043F080039BB213807B68FB677B68B3F893
:1034D00050309BB21A46FB6F1344FB673B681B7866
:1034E000DA00FB6F134403F58063BB673B681B89FD
:1034F0005B089BB25B009AB2BB6F1A807B687B67EC
:103500007B68B3F850309BB21A467B6F13447B67DD
:103510003B681B78DA007B6F134403F204433B677C
:103520003B685B895B089BB25B009AB23B6F1A8079
:103530003B685B78002B40F0AF817A683B681B7872
:103540009B0013441B88A7F86030B7F8603003F481
:103550008043002B1DD07A683B681B789B00134486
:103560001B889BB223F4E04323F07003A7F85E307E
:103570007A683B681B789B001A44B7F85E3043F0CA
:103580007F4343F47F0343F4404343F080039BB203
:1035900013807A683B681B789B0013441B88A7F84C
:1035A0005C30B7F85C3003F04003002B1DD07A6824
:1035B0003B681B789B0013441B889BB223F4E043B9
:1035C00023F07003A7F85A307A683B681B789B0099
:1035D0001A44B7F85A3043F07F4343F47F0343F46F
:1035E000004343F0C0039BB213803B685B78002B21
:1035F0006BD17B68FB647B68B3F850309BB21A4692
:10360000FB6C1344FB643B681B78DA00FB6C1344CF
:1036100003F20243BB64BB6C1B889BB2C3F3090378
:103620009AB2BB6C1A803B681B69002B0AD1BB6C39
:103630001B889BB26FEA43436FEA53439AB2BB6C59
:103640001A805DE03B681B693E2B1CD83B681B69F8
:103650005B08C7F88C303B681B6903F00103002B43
:1036600004D0D7F88C300133C7F88C30BB6C1B8882
:103670009AB2D7F88C309BB29B029BB213439AB29A
:10368000BB6C1A803CE03B681B695B09C7F88C3057
:103690003B681B6903F01F03002B04D1D7F88C3063
:1036A000013BC7F88C30BB6C1B889AB2D7F88C30C2
:1036B0009BB29B029BB213439BB26FEA43436FEAF8
:1036C00053439AB2BB6C1A801AE03B685B78012BBB
:1036D00016D17B687B657B68B3F850309BB21A4685
:1036E0007B6D13447B653B681B78DA007B6D13446C
:1036F00003F202433B653B681B699AB23B6D1A803B
:103700007B687B643B685B78002B6BD17B68FB63D9
:103710007B68B3F850309BB21A46FB6B1344FB63D3
:103720003B681B78DA00FB6B134403F20643BB6370
:10373000BB6B1B889BB2C3F309039AB2BB6B1A80A5
:103740003B681B69002B0AD1BB6B1B889BB26FEADD
:1037500043436FEA53439AB2BB6B1A805BE03B680A
:103760001B693E2B1CD83B681B695B08C7F8883077
:103770003B681B6903F00103002B04D0D7F88830A5
:103780000133C7F88830BB6B1B889AB2D7F88830F2
:103790009BB29B029BB213439AB2BB6B1A803AE076
:1037A0003B681B695B09C7F888303B681B6903F0FD
:1037B0001F03002B04D1D7F88830013BC7F88830AD
:1037C000BB6B1B889AB2D7F888309BB29B029BB226
:1037D00013439BB26FEA43436FEA53439AB2BB6B06
:1037E0001A8018E03B685B78012B14D17B68B3F832
:1037F00050309BB21A467B6C13447B643B681B7849
:10380000DA007B6C134403F206433B643B681B699C
:103810009AB23B6C1A807A683B681B789B00134411
:103820001B889BB223F4804323F07003FB86FB8E3E
:1038300083F48053FB86FB8E83F40053FB867A6807
:103840003B681B789B001A44FB8E43F07F4343F494
:103850007F0343F4004343F080039BB213807A68F4
:103860003B681B789B0013441B889BB223F4E04306
:1038700023F04003BB867A683B681B789B001A44A0
:10388000BB8E43F07F4343F47F0343F4004343F094
:1038900080039BB21380BCE07A683B681B789B0076
:1038A00013441B88A7F86E30B7F86E3003F48043DA
:1038B000002B1DD07A683B681B789B0013441B8843
:1038C0009BB223F4E04323F07003A7F86C307A68CE
:1038D0003B681B789B001A44B7F86C3043F07F4379
:1038E00043F47F0343F4404343F080039BB21380CF
:1038F0007A683B681B789B0013441B88A7F86A30E2
:10390000B7F86A3003F04003002B1DD07A683B689B
:103910001B789B0013441B889BB223F4E04323F0E5
:103920007003A7F868307A683B681B789B001A44DC
:10393000B7F8683043F07F4343F47F0343F4004318
:1039400043F0C0039BB213803B68DB78012B24D08B
:103950007A683B681B789B0013441B889BB223F456
:10396000E04323F04003A7F86430B7F8643083F0F5
:103970002003A7F864307A683B681B789B001A44E0
:10398000B7F8643043F07F4343F47F0343F40043CC
:1039900043F080039BB213801DE07A683B681B787C
:1039A0009B0013441B889BB223F4E04323F04003A5
:1039B000A7F866307A683B681B789B001A44B7F812
:1039C000663043F07F4343F47F0343F4004343F006
:1039D00080039BB213807A683B681B789B0013447A
:1039E0001B889BB223F4804323F07003A7F8623056
:1039F0007A683B681B789B001A44B7F8623043F042
:103A00007F4343F47F0343F4004343F080039BB2BE
:103A1000138097F8973018469C37BD465DF8047BB5
:103A2000704700BF80B48DB000AF786039603B68EC
:103A30001B7B002B40F08E803B685B78002B44D0D2
:103A40007A683B681B789B0013441B88BB81BB8949
:103A500003F04003002B1BD07A683B681B789B0067
:103A600013441B889BB223F4E04323F070037B8153
:103A70007A683B681B789B001A447B8943F07F433C
:103A800043F47F0343F4004343F0C0039BB213802D
:103A90007A683B681B789B0013441B889BB223F415
:103AA000E04323F040033B817A683B681B789B002E
:103AB0001A443B8943F07F4343F47F0343F40043BC
:103AC00043F080039BB2138092E17A683B681B78D5
:103AD0009B0013441B887B827B8A03F48043002B6A
:103AE0001BD07A683B681B789B0013441B889BB2F1
:103AF00023F4E04323F070033B827A683B681B7831
:103B00009B001A443B8A43F07F4343F47F0343F412
:103B1000404343F080039BB213807A683B681B7874
:103B20009B0013441B889BB223F4804323F0700353
:103B3000FB817A683B681B789B001A44FB8943F041
:103B40007F4343F47F0343F4004343F080039BB27D
:103B500013804DE13B685B78002B40F0A5807A68CC
:103B60003B681B789B0013441B883B843B8C03F40D
:103B70008043002B1BD07A683B681B789B00134462
:103B80001B889BB223F4E04323F07003FB837A6825
:103B90003B681B789B001A44FB8B43F07F4343F444
:103BA0007F0343F4404343F080039BB213807A6861
:103BB0003B681B789B0013441B88BB83BB8B03F0C3
:103BC0004003002B1BD07A683B681B789B00134492
:103BD0001B889BB223F4E04323F070037B837A6855
:103BE0003B681B789B001A447B8B43F07F4343F474
:103BF0007F0343F4004343F0C0039BB213807A6811
:103C00003B681B789B0013441B889BB223F4E04362
:103C100023F070033B837A683B681B789B001A444F
:103C20003B8B43F07F4343F47F0343F4004343F073
:103C3000C0039BB213807A683B681B789B001344D7
:103C40001B889BB223F4804323F07003FB827A68C5
:103C50003B681B789B001A44FB8A43F07F4343F484
:103C60007F0343F4004343F080039BB213807A68E0
:103C70003B681B789B0013441B889BB223F4E043F2
:103C800023F04003BB827A683B681B789B001A4490
:103C9000BB8A43F07F4343F47F0343F4004343F084
:103CA00080039BB21380A3E07A683B681B789B007B
:103CB00013441B88FB85FB8D03F48043002B1BD032
:103CC0007A683B681B789B0013441B889BB223F4E3
:103CD000E04323F07003BB857A683B681B789B0048
:103CE0001A44BB8D43F07F4343F47F0343F44043C6
:103CF00043F080039BB213807A683B681B789B007B
:103D000013441B887B857B8D03F04003002B1BD065
:103D10007A683B681B789B0013441B889BB223F492
:103D2000E04323F070033B857A683B681B789B0077
:103D30001A443B8D43F07F4343F47F0343F4004335
:103D400043F0C0039BB213807A683B681B789B00EA
:103D500013441B889BB223F4E04323F07003FB84DD
:103D60007A683B681B789B001A44FB8C43F07F43C6
:103D700043F47F0343F4404343F080039BB213803A
:103D80007A683B681B789B0013441B889BB223F422
:103D9000E04323F04003BB847A683B681B789B00B8
:103DA0001A44BB8C43F07F4343F47F0343F4004346
:103DB00043F080039BB213807A683B681B789B00BA
:103DC00013441B889BB223F4804323F070037B844D
:103DD0007A683B681B789B001A447B8C43F07F43D6
:103DE00043F47F0343F4004343F080039BB213800A
:103DF000002318463437BD465DF8047B704780B514
:103E0000ACB000AF786039603B685B78012B40F064
:103E1000CA843B689A693B681B699A4204D93B682B
:103E20001B69C7F8AC3003E03B689B69C7F8AC304E
:103E30003B681B7B002B22D13B6859693B68DA88C1
:103E4000D7F8AC309BB2786800F0BDFE7B683B6170
:103E50007B68B3F850309BB21A463B6913443B6110
:103E60003B681B78DA003B69134403F20243FB60B2
:103E7000D7F8AC309AB2FB681A8000F06FBC3B6890
:103E8000DB78022B40F01E833B681A6A3B681B6993
:103E90009A4240F2CF827A683B681B789B001344B9
:103EA0001B889BB223F4E04323F07003A7F856303D
:103EB0007A683B681B789B001A44B7F8563043F089
:103EC0007F4343F47F0343F4014343F080039BB2F9
:103ED00013803B681A6AD7F8AC30D21A3B681A6272
:103EE0007A683B681B789B0013441B889BB203F0E5
:103EF0004003002B00F04F817B683B633B685B789D
:103F0000002B6BD17B68BB627B68B3F850309BB2EF
:103F10001A46BB6A1344BB623B681B78DA00BB6A73
:103F2000134403F206437B627B6A1B889BB2C3F394
:103F300009039AB27B6A1A80D7F8AC30002B0AD1F9
:103F40007B6A1B889BB26FEA43436FEA53439AB282
:103F50007B6A1A805BE0D7F8AC303E2B1CD8D7F8D0
:103F6000AC305B08C7F8A830D7F8AC3003F00103D9
:103F7000002B04D0D7F8A8300133C7F8A8307B6AEB
:103F80001B889AB2D7F8A8309BB29B029BB213430E
:103F90009AB27B6A1A803AE0D7F8AC305B09C7F86E
:103FA000A830D7F8AC3003F01F03002B04D1D7F8AA
:103FB000A830013BC7F8A8307B6A1B889AB2D7F8B3
:103FC000A8309BB29B029BB213439BB26FEA434360
:103FD0006FEA53439AB27B6A1A8018E03B685B78B9
:103FE000012B14D17B68B3F850309BB21A463B6B5F
:103FF00013443B633B681B78DA003B6B134403F2CA
:104000000643FB62D7F8AC309AB2FB6A1A803B6871
:104010005B89A7F876303B685969D7F8AC309BB21A
:10402000B7F87620786800F0CEFD3B685A69D7F87B
:10403000AC301A443B685A613B681A6A3B681B699A
:104040009A4207D93B681A6AD7F8AC30D21A3B6853
:104050001A6206E03B681B6AC7F8AC303B68002276
:104060001A623B685B78002B6BD17B68BB617B6815
:10407000B3F850309BB21A46BB691344BB613B682E
:104080001B78DA00BB69134403F202437B617B694E
:104090001B889BB2C3F309039AB27B691A80D7F8D5
:1040A000AC30002B0AD17B691B889BB26FEA43437B
:1040B0006FEA53439AB27B691A805DE0D7F8AC305F
:1040C0003E2B1CD8D7F8AC305B08C7F8A430D7F823
:1040D000AC3003F00103002B04D0D7F8A430013337
:1040E000C7F8A4307B691B889AB2D7F8A4309BB27A
:1040F0009B029BB213439AB27B691A803CE0D7F8CB
:10410000AC305B09C7F8A430D7F8AC3003F01F031C
:10411000002B04D1D7F8A430013BC7F8A4307B6949
:104120001B889AB2D7F8A4309BB29B029BB2134370
:104130009BB26FEA43436FEA53439AB27B691A809A
:104140001AE03B685B78012B16D17B683B627B6889
:10415000B3F850309BB21A463B6A13443B623B684B
:104160001B78DA003B6A134403F20243FB61D7F881
:10417000AC309AB2FB691A803B681B89A7F876308D
:104180003B685969D7F8AC309BB2B7F876207868AD
:1041900000F019FDE2E23B685B78002B6BD17B6895
:1041A000BB647B68B3F850309BB21A46BB6C1344B7
:1041B000BB643B681B78DA00BB6C134403F2024318
:1041C0007B647B6C1B889BB2C3F309039AB27B6C44
:1041D0001A80D7F8AC30002B0AD17B6C1B889BB2BD
:1041E0006FEA43436FEA53439AB27B6C1A805DE0F7
:1041F000D7F8AC303E2B1CD8D7F8AC305B08C7F8EA
:10420000A030D7F8AC3003F00103002B04D0D7F86E
:10421000A0300133C7F8A0307B6C1B889AB2D7F866
:10422000A0309BB29B029BB213439AB27B6C1A8064
:104230003CE0D7F8AC305B09C7F8A030D7F8AC3019
:1042400003F01F03002B04D1D7F8A030013BC7F8BF
:10425000A0307B6C1B889AB2D7F8A0309BB29B022F
:104260009BB213439BB26FEA43436FEA53439AB244
:104270007B6C1A801AE03B685B78012B16D17B6857
:104280003B657B68B3F850309BB21A463B6D1344D4
:104290003B653B681B78DA003B6D134403F2024335
:1042A000FB64D7F8AC309AB2FB6C1A803B681B8970
:1042B000A7F876303B685969D7F8AC309BB2B7F8AD
:1042C0007620786800F07FFC3B685A69D7F8AC30FC
:1042D0001A443B685A613B681A6A3B681B699A42F8
:1042E00007D93B681A6AD7F8AC30D21A3B681A6211
:1042F00006E03B681B6AC7F8AC303B6800221A62D4
:104300007B683B643B685B78002B6BD17B68BB634D
:104310007B68B3F850309BB21A46BB6B1344BB6347
:104320003B681B78DA00BB6B134403F206437B63E4
:104330007B6B1B889BB2C3F309039AB27B6B1A8019
:10434000D7F8AC30002B0AD17B6B1B889BB26FEA8D
:1043500043436FEA53439AB27B6B1A805BE0D7F812
:10436000AC303E2B1CD8D7F8AC305B08C7F89C307B
:10437000D7F8AC3003F00103002B04D0D7F89C3001
:104380000133C7F89C307B6B1B889AB2D7F89C30FE
:104390009BB29B029BB213439AB27B6B1A803AE0AA
:1043A000D7F8AC305B09C7F89C30D7F8AC3003F0D5
:1043B0001F03002B04D1D7F89C30013BC7F89C3079
:1043C0007B6B1B889AB2D7F89C309BB29B029BB246
:1043D00013439BB26FEA43436FEA53439AB27B6B3A
:1043E0001A8018E03B685B78012B14D17B68B3F826
:1043F00050309BB21A463B6C13443B643B681B78BD
:10440000DA003B6C134403F20643FB63D7F8AC308D
:104410009AB2FB6B1A803B685B89A7F876303B68E1
:104420005969D7F8AC309BB2B7F87620786800F0BD
:10443000CAFB93E13B681B6AC7F8AC307A683B68FB
:104440001B789B0013441B889BB223F4E24323F0A8
:104450007003A7F862307A683B681B789B001A44A7
:10446000B7F8623043F07F4343F47F0343F40043E3
:1044700043F080039BB213807B68FB657B68B3F8D5
:1044800050309BB21A46FB6D1344FB653B681B78AA
:10449000DA00FB6D134403F20243BB65D7F8AC307E
:1044A0009AB2BB6D1A803B681B89A7F876303B68CF
:1044B0005969D7F8AC309BB2B7F87620786800F02D
:1044C00082FB4BE13B681A6AD7F8AC30D21A3B68E2
:1044D0001A627A683B681B789B0013441B889BB266
:1044E00003F04003002B00F09A807B683B673B6839
:1044F0005B78002B6BD17B68BB667B68B3F8503070
:104500009BB21A46BB6E1344BB663B681B78DA004D
:10451000BB6E134403F206437B667B6E1B889BB223
:10452000C3F309039AB27B6E1A80D7F8AC30002B24
:104530000AD17B6E1B889BB26FEA43436FEA5343F9
:104540009AB27B6E1A805BE0D7F8AC303E2B1CD859
:10455000D7F8AC305B08C7F89830D7F8AC3003F028
:104560000103002B04D0D7F898300133C7F89830F6
:104570007B6E1B889AB2D7F898309BB29B029BB295
:1045800013439AB27B6E1A803AE0D7F8AC305B09DD
:10459000C7F89830D7F8AC3003F01F03002B04D1D4
:1045A000D7F89830013BC7F898307B6E1B889AB2D9
:1045B000D7F898309BB29B029BB213439BB26FEA31
:1045C00043436FEA53439AB27B6E1A8018E03B680C
:1045D0005B78012B14D17B68B3F850309BB21A463C
:1045E0003B6F13443B673B681B78DA003B6F134417
:1045F00003F20643FB66D7F8AC309AB2FB6E1A8022
:104600003B685B89A7F876303B685969D7F8AC30CE
:104610009BB2B7F87620786800F0D5FA9EE03B6848
:104620005B78002B6BD17B68FB677B68B3F85030FD
:104630009BB21A46FB6F1344FB673B681B78DA009A
:10464000FB6F134403F20243BB67BB6F1B889BB233
:10465000C3F309039AB2BB6F1A80D7F8AC30002BB2
:104660000AD1BB6F1B889BB26FEA43436FEA534387
:104670009AB2BB6F1A8063E0D7F8AC303E2B1CD8DF
:10468000D7F8AC305B08C7F89430D7F8AC3003F0FB
:104690000103002B04D0D7F894300133C7F89430CD
:1046A000BB6F1B889AB2D7F894309BB29B029BB227
:1046B00013439AB2BB6F1A8042E0D7F8AC305B0963
:1046C000C7F89430D7F8AC3003F01F03002B04D1A7
:1046D000D7F89430013BC7F89430BB6F1B889AB26F
:1046E000D7F894309BB29B029BB213439BB26FEA04
:1046F00043436FEA53439AB2BB6F1A8020E03B6892
:104700005B78012B1CD17B68C7F884307B68B3F8D9
:1047100050309BB21A46D7F884301344C7F884301F
:104720003B681B78DA00D7F88430134403F2024365
:10473000C7F88030D7F8AC309AB2D7F880301A80FA
:104740003B681B89A7F876303B685969D7F8AC30CD
:104750009BB2B7F87620786800F035FA7A683B6843
:104760001B789B0013441B889BB223F4E04323F087
:1047700040037B817B8983F010037B817B8983F0FD
:1047800020037B817A683B681B789B001A447B89F5
:1047900043F07F4343F47F0343F4004343F080033B
:1047A0009BB21380D5E03B681B7B002B56D13B6846
:1047B0009B69002B22D13B68DB78002B1ED17A68E5
:1047C0003B681B789B0013441B889BB223F4E04397
:1047D00023F07003A7F88E307A683B681B789B0043
:1047E0001A44B7F88E3043F07F4343F47F0343F419
:1047F000014343F080039BB213801DE07A683B685D
:104800001B789B0013441B889BB223F4E24323F0E4
:104810007003A7F88C307A683B681B789B001A44B9
:10482000B7F88C3043F07F4343F47F0343F40043F5
:1048300043F080039BB213803B689A693B681B6915
:104840009A4207D93B689A693B681B69D21A3B6850
:104850009A6154E03B6800229A6150E03B68DB7843
:10486000022B42D13B68DB69002B48D07A683B6859
:104870001B789B0013441B88A7F89230B7F892303E
:1048800003F48043002B05D0B7F8923003F04003C7
:10489000002B0BD1B7F8923003F48043002B2ED1BC
:1048A000B7F8923003F04003002B28D17A683B68B8
:1048B0001B789B0013441B889BB223F4E04323F036
:1048C0007003A7F890307A683B681B789B001A4405
:1048D000B7F8903043F07F4343F47F0343F4004341
:1048E00043F0C0039BB2138009E03B68DB78012BE7
:1048F00003D13B6800229A6101E001232AE07A6833
:104900003B681B789B0013441B889BB223F48043B5
:1049100023F07003A7F88A30B7F88A3083F4805305
:10492000A7F88A30B7F88A3083F40053A7F88A30A2
:104930007A683B681B789B001A44B7F88A3043F0CA
:104940007F4343F47F0343F4004343F080039BB26F
:10495000138000231846B037BD4680BD80B485B0B3
:1049600000AF786039603B685B78002B20D07A68B4
:104970003B681B789B0013441B889BB223F4E043E5
:1049800023F04003BB81BB8983F01003BB817A68AD
:104990003B681B789B001A44BB8943F07F4343F478
:1049A0007F0343F4004343F080039BB213801FE076
:1049B0007A683B681B789B0013441B889BB223F4E6
:1049C000804323F07003FB81FB8983F48053FB81D8
:1049D0007A683B681B789B001A44FB8943F07F434D
:1049E00043F47F0343F4004343F080039BB21380FE
:1049F000002318461437BD465DF8047B704780B429
:104A000087B000AF786039603B685B78002B4CD092
:104A10007A683B681B789B0013441B883B823B8A67
:104A200003F04003002B1BD07A683B681B789B0087
:104A300013441B889BB223F4E04323F07003FB81F3
:104A40007A683B681B789B001A44FB8943F07F43DC
:104A500043F47F0343F4004343F0C0039BB213804D
:104A60003B68DB78012B6CD07A683B681B789B0035
:104A700013441B889BB223F4E04323F04003BB8123
:104A8000BB8983F02003BB817A683B681B789B005D
:104A90001A44BB8943F07F4343F47F0343F400434C
:104AA00043F080039BB213804BE07A683B681B782D
:104AB0009B0013441B88FB82FB8A03F48043002B7A
:104AC0001BD07A683B681B789B0013441B889BB201
:104AD00023F4E04323F07003BB827A683B681B78C1
:104AE0009B001A44BB8A43F07F4343F47F0343F4A3
:104AF000404343F080039BB213807A683B681B7885
:104B00009B0013441B889BB223F4804323F0700363
:104B10007B827B8A83F480537B827B8A83F400537D
:104B20007B827A683B681B789B001A447B8A43F03F
:104B30007F4343F47F0343F4004343F080039BB27D
:104B40001380002318461C37BD465DF8047B704770
:104B500080B483B000AF78600B46FB70FB78002B0D
:104B600003D17B688022A3F84C20002318460C3721
:104B7000BD465DF8047B704780B483B000AF7860B9
:104B80007B68B3F858309BB26FEA43436FEA5343F4
:104B90009AB27B68A3F85820002318460C37BD460C
:104BA0005DF8047B704780B485B000AF78607B68A7
:104BB000B3F844309BB2FB60FB6818461437BD461F
:104BC0005DF8047B704780B48BB000AFF860B960CB
:104BD00011461A460B46FB801346BB80BB88013347
:104BE0005B08BB61FB687B61BB68FB61FA887B6922
:104BF000134403F580633B62BB697B621BE0FB6986
:104C00001B787B82FB6901331B781B021AB2B7F950
:104C1000123013431BB27B823B6A7A8A1A803B6A4A
:104C200002333B62FB690133FB61FB690133FB61CA
:104C30007B6A013B7B627B6A002BE0D100BF00BF37
:104C40002C37BD465DF8047B704780B48BB000AF55
:104C5000F860B96011461A460B46FB801346BB80CC
:104C6000BB885B089BB2BB61FB687B61BB68FB6177
:104C7000FA887B69134403F580633B62BB697B62FE
:104C800018E03B6A1B889BB23B613B6A02333B6284
:104C90003B69DAB2FB691A70FB690133FB613B695E
:104CA0001B0ADAB2FB691A70FB690133FB617B6A8C
:104CB000013B7B627B6A002BE3D1BB8803F00103DD
:104CC0009BB2002B07D03B6A1B889BB23B613B69C0
:104CD000DAB2FB691A7000BF2C37BD465DF8047B61
:104CE000704780B582B000AF0023FB71032001F054
:104CF00035FB0F2000F00EF80346002B02D00123F5
:104D0000FB7101E0FCF728FBFB7918460837BD462C
:104D100080BD000080B584B000AF78600023FB73D5
:104D2000164B1B68002B22D0154B1A68134B1B68BF
:104D30004FF47A71B1FBF3F3B2FBF3F3184601F0D1
:104D400040FB0346002B0FD17B680F2B09D80022B4
:104D500079684FF0FF3001F00CFB0A4A7B68136062
:104D600007E00123FB7304E00123FB7301E001234F
:104D7000FB73FB7B18461037BD4680BDC00000208A
:104D8000B8000020BC00002080B400AF054B1A68BA
:104D9000054B1B681344034A136000BFBD465DF812
:104DA000047B7047681E0020C000002080B400AF64
:104DB000034B1B681846BD465DF8047B704700BF77
:104DC000681E002080B588B000AF78607B68002B3B
:104DD00001D10123FEE27B681B6803F00103002B75
:104DE00075D0974B9B6803F00C03BB61944BDB6859
:104DF00003F003037B61BB690C2B02D17B69032B9E
:104E000002D0BB69082B0BD18D4B1B6803F4003318
:104E1000002B5BD07B685B68002B57D10123D9E264
:104E20007B685B68B3F5803F06D1854B1B68844A7D
:104E300043F4803313601DE07B685B68B3F5A02FFB
:104E40000CD17F4B1B687E4A43F4802313607C4B5C
:104E50001B687B4A43F4803313600BE0784B1B687C
:104E6000774A23F480331360754B1B68744A23F42C
:104E7000802313607B685B68002B13D0FFF796FFDD
:104E8000386108E0FFF792FF02463B69D31A642BB2
:104E900001D903239EE26A4B1B6803F40033002B05
:104EA000F0D014E0FFF782FF386108E0FFF77EFFE3
:104EB00002463B69D31A642B01D903238AE2604B73
:104EC0001B6803F40033002BF0D100E000BF7B68C7
:104ED0001B6803F00203002B75D0594B9B6803F04D
:104EE0000C03BB61564BDB6803F003037B61BB69BA
:104EF0000C2B02D17B69022B02D0BB69042B1FD182
:104F00004F4B1B6803F48063002B05D07B68DB6884
:104F1000002B01D101235DE2494B5B6823F0FE4287
:104F20007B681B691B06464913434B60454B1B6856
:104F30001846FFF7EFFE0346002B43D0012349E25A
:104F40007B68DB68002B23D03D4B1B683C4A43F455
:104F500080731360FFF72AFF386108E0FFF726FF30
:104F600002463B69D31A022B01D9032332E2344BA8
:104F70001B6803F48063002BF0D0314B5B6823F097
:104F8000FE427B681B691B062D4913434B601AE0E8
:104F90002B4B1B682A4A23F480731360FFF706FF2C
:104FA000386108E0FFF702FF02463B69D31A022B83
:104FB00001D903230EE2224B1B6803F48063002B0C
:104FC000F0D100E000BF7B681B6803F00803002BF2
:104FD00041D07B685B69002B1CD0194BD3F894300F
:104FE000174A43F00103C2F89430FFF7DFFE38613F
:104FF00008E0FFF7DBFE02463B69D31A022B01D91A
:105000000323E7E10E4BD3F8943003F00203002BA7
:10501000EFD020E00A4BD3F89430094A23F0010383
:10502000C2F89430FFF7C2FE38610DE0FFF7BEFE14
:1050300002463B69D31A022B06D90323CAE100BFFB
:1050400000100240BC0000208C4BD3F8943003F0D9
:105050000203002BEAD17B681B6803F00403002BDA
:1050600000F0A6800023FB77844B9B6D03F08053F8
:10507000002B01D1012300E00023002B0DD07F4B3A
:105080009B6D7E4A43F0805393657C4B9B6D03F090
:105090008053FB60FB680123FB77794B1B6803F4AB
:1050A0008073002B18D1764B1B68754A43F48073CC
:1050B0001360FFF77BFE386108E0FFF777FE0246DA
:1050C0003B69D31A022B01D9032383E16C4B1B6884
:1050D00003F48073002BF0D07B689B68012B08D110
:1050E000664BD3F89030654A43F00103C2F8903024
:1050F00024E07B689B68052B10D1604BD3F890307F
:105100005E4A43F00403C2F890305C4BD3F8903011
:105110005A4A43F00103C2F890300FE0574BD3F8DE
:105120009030564A23F00103C2F89030534BD3F825
:105130009030524A23F00403C2F890307B689B6899
:10514000002B16D0FFF732FE38610AE0FFF72EFE83
:1051500002463B69D31A41F28832934201D90323B4
:1051600038E1464BD3F8903003F00203002BEDD02A
:1051700015E0FFF71BFE38610AE0FFF717FE024655
:105180003B69D31A41F28832934201D9032321E1CA
:105190003A4BD3F8903003F00203002BEDD1FB7FA4
:1051A000012B05D1354B9B6D344A23F08053936519
:1051B0007B681B6803F02003002B3CD07B689B6955
:1051C000002B1CD02D4BD3F898302C4A43F0010310
:1051D000C2F89830FFF7EAFD386108E0FFF7E6FD16
:1051E00002463B69D31A022B01D90323F2E0234B79
:1051F000D3F8983003F00203002BEFD01BE01F4BD5
:10520000D3F898301D4A23F00103C2F89830FFF715
:10521000CDFD386108E0FFF7C9FD02463B69D31AAE
:10522000022B01D90323D5E0144BD3F8983003F0B7
:105230000203002BEFD17B68DB69002B00F0C980F3
:105240000E4B9B6803F00C030C2B00F083807B68F3
:10525000DB69022B5ED1094B1B68084A23F080737F
:105260001360FFF7A3FD38610CE0FFF79FFD0246D6
:105270003B69D31A022B05D90323ABE0001002408F
:1052800000700040554B1B6803F00073002BECD1FD
:10529000524BDA68524B13407A68116A7A68526A44
:1052A000013A120111437A68926A120211437A6834
:1052B000126B5208013A520511437A68526B520838
:1052C000013A520611437A68D26AD2060A43434928
:1052D0001343CB60414B1B68404A43F0807313601B
:1052E0003E4BDB683D4A43F08073D360FFF75EFDC1
:1052F000386108E0FFF75AFD02463B69D31A022BDA
:1053000001D9032366E0354B1B6803F00073002BC3
:10531000F0D05EE0314B1B68304A23F0807313609D
:10532000FFF744FD386108E0FFF740FD02463B69A6
:10533000D31A022B01D903234CE0284B1B6803F03E
:105340000073002BF0D1254BDA682449254B13401C
:10535000CB603EE07B68DB69012B01D1012339E0A2
:105360001E4BDB687B617B6903F003027B681B6A71
:105370009A422CD17B6903F0F0027B685B6A013BA7
:105380001B019A4223D17B6903F4FE427B689B6A2E
:105390001B029A421BD17B6903F078427B68DB6A6F
:1053A000DB069A4213D17B6903F4C0027B681B6B56
:1053B0005B08013B5B059A4209D17B6903F0C0623F
:1053C0007B685B6B5B08013B5B069A4201D0012363
:1053D00000E0002318462037BD4680BD0010024083
:1053E0000C809F01FCFFEEFE80B586B000AF7860B8
:1053F000396000237B617B68002B01D101231EE112
:10540000914B1B6803F00F033A689A4210D98E4BF8
:105410001B6823F00F028C493B6813430B608A4BD7
:105420001B6803F00F033A689A4201D0012306E19A
:105430007B681B6803F00103002B73D07B685B68FB
:10544000032B29D1814B1B6803F00073002B01D182
:105450000123F4E000F09EF938613B697C4A9342F5
:105460003FD97A4B9B6803F0F003002B09D07B688F
:105470001B6803F00203002B33D07B689B68002B72
:105480002FD1724B9B6823F0F003704A43F08003E6
:10549000936080237B6124E07B685B68022B07D1EB
:1054A0006A4B1B6803F40033002B09D10123C6E0CB
:1054B000664B1B6803F48063002B01D10123BEE01F
:1054C00000F0CEF838613B69614A934209D95F4BDD
:1054D0009B6823F0F0035D4A43F0800393608023D0
:1054E0007B615A4B9B6823F003027B685B685749DA
:1054F00013438B60FFF75AFCF8600AE0FFF756FC95
:105500000246FB68D31A41F28832934201D9032341
:1055100095E04E4B9B6803F00C027B685B689B0038
:105520009A42EBD17B681B6803F00203002B23D067
:105530007B681B6803F00403002B05D0434B9B687A
:10554000424A43F4E06393607B681B6803F00803FE
:10555000002B07D03D4B9B6823F47C533B4A43F41C
:10556000E0639360394B9B6823F0F0027B689B6893
:10557000364913438B6008E07B69802B05D1334BA0
:105580009B68324A23F0F00393602F4B1B6803F0B3
:105590000F033A689A421DD22B4B1B6823F00F026F
:1055A00029493B6813430B60FFF700FCF8600AE0F1
:1055B000FFF7FCFB0246FB68D31A41F288329342A4
:1055C00001D903233BE0204B1B6803F00F033A682B
:1055D0009A42EDD17B681B6803F00403002B08D0CE
:1055E0001A4B9B6823F4E0627B68DB68174913431E
:1055F0008B607B681B6803F00803002B09D0134BFA
:105600009B6823F460527B681B69DB000F491343DE
:105610008B6000F025F802460C4B9B681B0903F0D9
:105620000F030C49CB5C03F01F0322FA03F30A4A71
:1056300013600A4B1B681846FFF76CFB03461846BD
:105640001837BD4680BD00BF002002400010024058
:1056500000B4C4042C9A0008B8000020BC0000204C
:1056600080B487B000AF2C4B9B6803F00C03042B75
:1056700002D12A4B3B6147E0274B9B6803F00C03A8
:10568000082B02D1264B3B613EE0234B9B6803F085
:105690000C030C2B36D1204BDB6803F00303FB60BB
:1056A0001D4BDB681B0903F00F030133BB60FB6874
:1056B000032B0CD11A4ABB68B2FBF3F3164AD2682B
:1056C000120A02F07F0202FB03F37B610CE0134A33
:1056D000BB68B2FBF3F3104AD268120A02F07F02F1
:1056E00002FB03F37B6100BF0B4BDB685B0E03F037
:1056F000030301335B007B607A697B68B2FBF3F3E1
:105700003B6101E000233B613B6918461C37BD4605
:105710005DF8047B704700BF001002400024F400D5
:1057200000366E0180B400AF034B1B681846BD46BF
:105730005DF8047B704700BFB800002080B500AF63
:10574000FFF7F0FF0246064B9B681B0A03F00703B6
:105750000449CB5C03F01F0322FA03F3184680BD13
:10576000001002403C9A000880B500AFFFF7DAFF56
:105770000246064B9B68DB0A03F007030449CB5C37
:1057800003F01F0322FA03F3184680BD0010024005
:105790003C9A000880B487B000AF1E4BDB6803F072
:1057A00003033B611B4BDB681B0903F00F03013351
:1057B000FB603B69032B0CD1174AFB68B2FBF3F388
:1057C000144AD268120A02F07F0202FB03F37B61E3
:1057D0000CE0124AFB68B2FBF3F30E4AD268120ADD
:1057E00002F07F0202FB03F37B6100BF094BDB6821
:1057F0005B0E03F0030301335B00BB607A69BB6897
:10580000B2FBF3F37B607B6818461C37BD465DF83E
:10581000047B70470010024000366E010024F40043
:1058200080B586B000AF78600023FB740023BB74A2
:105830007B681B6803F40023002B00F09880002392
:105840007B74434B9B6D03F08053002B0DD1404B79
:105850009B6D3F4A43F0805393653D4B9B6D03F036
:105860008053BB60BB6801237B743A4B1B68394A89
:1058700043F480731360FFF799FAF86009E0FFF7CB
:1058800095FA0246FB68D31A022B02D90323FB7454
:1058900005E0304B1B6803F48073002BEFD0FB7CDA
:1058A000002B59D12A4BD3F8903003F440737B611D
:1058B0007B69002B1ED07B681B6D7A699A4219D0D8
:1058C000234BD3F8903023F440737B61204BD3F803
:1058D00090301F4A43F48033C2F890301C4BD3F809
:1058E00090301B4A23F48033C2F89030184A7B6909
:1058F000C2F890307B6903F00103002B16D0FFF74C
:1059000055FAF8600BE0FFF751FA0246FB68D31A2C
:1059100041F28832934202D90323FB7406E00C4B18
:10592000D3F8903003F00203002BECD0FB7C002B6B
:105930000BD1074BD3F8903023F440727B681B6D7A
:1059400003491343C1F8903008E0FB7CBB7405E0C9
:105950000010024000700040FB7CBB747B7C012B7C
:1059600005D1A74B9B6DA64A23F0805393657B68B6
:105970001B6803F00103002B0AD0A14BD3F8883039
:1059800023F003027B685B689D491343C1F88830AC
:105990007B681B6803F00203002B0AD0984BD3F8F6
:1059A000883023F00C027B689B6895491343C1F84B
:1059B00088307B681B6803F00403002B0AD0904BEF
:1059C000D3F8883023F030027B68DB688C491343BE
:1059D000C1F888307B681B6803F00803002B0AD0ED
:1059E000874BD3F8883023F0C0027B681B69844959
:1059F0001343C1F888307B681B6803F01003002B49
:105A00000AD07F4BD3F8883023F440727B685B69FF
:105A10007B491343C1F888307B681B6803F020037F
:105A2000002B0AD0764BD3F8883023F440627B6891
:105A30009B6973491343C1F888307B681B6803F086
:105A40004003002B0AD06E4BD3F8883023F4405229
:105A50007B68DB696A491343C1F888307B681B683F
:105A600003F08003002B0AD0654BD3F8883023F471
:105A700040427B681B6A62491343C1F888307B68E7
:105A80001B6803F48073002B0AD05D4BD3F8883079
:105A900023F440327B685B6A59491343C1F888306C
:105AA0007B681B6803F40033002B0AD0544BD3F8F7
:105AB0009C3023F003027B689B6A51491343C1F871
:105AC0009C307B681B6803F40073002B0AD04C4B9E
:105AD000D3F8883023F440227B68DB6A48491343BB
